:020000040001F9
:10800000382E0020F58001000F8101001181010050
:108010000000000000000000000000000000000060
:1080200000000000000000000000000013810100BB
:108030000000000000000000158101001781010010
:1080400019810100198101000984010019810100D1
:108050001981010000000000618201001981010006
:1080600019810100198101001981010019810100A4
:108070001981010019810100198101001981010094
:10808000198101003D83010019810100198101005E
:1080900065830100198101006D83010019810100D0
:1080A000198101001981010000000000000000009A
:1080B00000000000000000000000000000000000C0
:1080C0000348854600F08CF80048004781A601006F
:1080D000382E0020401E00BF00BF00BF00BF00BF01
:1080E00000BF00BF00BF00BF00BF00BF00BFF1D195
:1080F000704700000321094802680A4302600848EB
:1081000002680A4302600748804707480047FEE7C5
:10811000FEE7FEE7FEE7FEE7FEE70000240500407D
:1081200054050040A5830100C180010030B50B4615
:10813000014600202022012409E00D46D5409D4241
:1081400005D31D469540491B2546954040191546C7
:10815000521E002DF1DC30BD03460B439B0703D0BC
:1081600009E008C9121F08C0042AFAD203E00B78FC
:108170000370401C491C521EF9D27047D2B201E074
:108180000270401C491EFBD270470022F6E710B572
:1081900013460A4604461946FFF7F0FF204610BD75
:1081A000421C0178401C0029FBD1801A704703460D
:1081B0000A780270401C491C002AF9D11846704701
:1081C00030B505460020034600E05B1C934205D213
:1081D000EC5CC85C201A01D1002CF6D130BD000047
:1081E000064C0125064E05E0E36807CC2B430C3C0A
:1081F00098471034B442F7D3FFF766FF48BA01003E
:1082000068BA010038B50446002C03D021460B485B
:10821000FFF7CDFF1F210948FFF7B7FF0848007897
:10822000084B09A20AA10090044800F03DF913216F
:108230000A48008876DF00F0B3FB38BD0920002033
:108240002F20002028200020434147450000000047
:1082500025732025732025630000000006200020E0
:10826000F0B585B03048056900203049C863002664
:1082700054E0142070432E49096844180120B0408E
:108280002C4909680840002846D00020029001903F
:10829000E068C04368402168084003902046039985
:1082A00002F074FE2048006968402168084004908C
:1082B0000498002818D0049868400090E068C043F3
:1082C000009948402168084007463946204602F098
:1082D0005DFEA0680099884338400190606800996D
:1082E00008403840029000BFA068A84303990840A6
:1082F0000199084301906068284003990840029959
:1083000008430290019902980843002803D022698B
:1083100001990298904700BF701CC6B206480078C9
:108320008642A6DB05B0F0BD00050050406100406C
:10833000A42000209C200020A120002010B50020B7
:10834000074908600021064841608160C160002043
:10835000034940390860486003F082F810BD00000E
:108360004011014010B502F02BFF10BD70B50C4854
:108370000068002810D00A4800688047044600BF03
:108380002546002D06D000BF00221146284600F0E9
:10839000EFFB00BF00BF01E001F07CFF70BD0000FB
:1083A000D420002010B502F001F8002805D01048B4
:1083B00010494860C8131049886101F0DBFF0028AC
:1083C00002D001200D49886002F026F800280ED066
:1083D0000B480068012807D00A480949086000BF17
:1083E000074800680128FBD1C0200549486110BD3D
:1083F000DFFF07C000050040006C004000060040A1
:1084000000EC0640759300001CB5234880680028E6
:1084100022D000202049886020488069C1B22048CD
:1084200000F0ECFB0446002C08D0012069460870DF
:10843000019468461B49096888470CE0184801F018
:1084400089FE012807D10020694608706846154951
:108450000968884700BF00BF0F48C069002805D0E1
:1084600000200D49C861032002F0AAFB0A48406AB7
:1084700000280FD000200849486208488038046866
:10848000046002206946087001946846054909683D
:10849000884700BF1CBD00000021004000250040AF
:1084A00014260020782000200FB410B504A9074B33
:1084B00002AA039800F001F9044602A9002000F086
:1084C00065F9204610BC08BC04B018478D87010030
:1084D00030B47446641E2578641CAB4204D3635DDB
:1084E0005B00E31830BC18471D46F8E7002805DBA1
:1084F000C206D20E01219140014A1160704700006E
:1085000080E200E0002805DBC206D20E0121914086
:10851000014A11607047000000E100E0002805DB1F
:10852000C206D20E01219140014A1160704700003D
:1085300000E200E010B5002819DB1A4A03231B02F1
:10854000D21883089B00D2588307DC0EFF23A34078
:108550009A438B071B0E8407E40EA3401A43114B6A
:10856000032424021B198408A4001A5118E00E4A9F
:1085700003071B0F083B9B089B00D2588307DC0EA8
:10858000FF23A3409A438B071B0E8407E40EA340EE
:108590001A43054B0407240F083CA408A4001A51F1
:1085A00010BD000000E100E01CED00E010B5002867
:1085B00019DB1A4A03231B02D21883089B00D258E6
:1085C0008307DC0EFF23A3409A438B071B0E84070F
:1085D000E40EA3401A43114B032424021B19840800
:1085E000A4001A5118E00E4A03071B0F083B9B0812
:1085F0009B00D2588307DC0EFF23A3409A438B07CE
:108600001B0E8407E40EA3401A43054B0407240FF6
:10861000083CA408A4001A5110BD000000E100E0CD
:108620001CED00E010B5002819DB1A4A03231B02D9
:10863000D21883089B00D2588307DC0EFF23A34087
:108640009A438B071B0E8407E40EA3401A43114B79
:10865000032424021B198408A4001A5118E00E4AAE
:1086600003071B0F083B9B089B00D2588307DC0EB7
:10867000FF23A3409A438B071B0E8407E40EA340FD
:108680001A43054B0407240F083CA408A4001A5100
:1086900010BD000000E100E01CED00E002E008C8B1
:1086A000121F08C1002AFAD170477047002001E06C
:1086B00001C1121F002AFBD17047FFB581B00546EA
:1086C000002706E025280AD0049A039990476D1CDC
:1086D0007F1C28780028F5D1384605B0F0BD00226F
:1086E00069786D1C10462E2913D1697804226D1CFF
:1086F0002A2909D102996D1C01C9029109E00A23B6
:108700005843303808186D1C29780B46303B092B2C
:10871000F5D92B78002BDFD0632B07D0732B10D02B
:10872000049A1846039990477F1C2DE002996C46E5
:108730000B782370091D0291002161706E460121A2
:1087400004E0029940C902910021C94352070AD5A9
:10875000002400E0641C84420DDA8C42FADB325DB6
:10876000002AF7D107E0002400E0641C8C42FCDB07
:10877000305D0028F9D13F1904E03078049A761C66
:1087800003999047641EF8D26D1CA2E70A68531C37
:108790000B6010707047000010B5054801F0DAFC5E
:1087A000002802D000F006F801E000F02DF810BD1E
:1087B0002426002008B50F480078022802D00120A6
:1087C0000D49886069460D4800F0EEF9002802D096
:1087D00000F01AF808BD80200949886068460078D2
:1087E0000849C86102200349087080200449486094
:1087F00000BFEFE77C20002000200040242600205E
:1088000000230040002500401CB501200549C86038
:1088100005490870032069460870684603490968DD
:1088200088471CBD002000407C20002078200020CC
:1088300000200549087001200449C86048600020F4
:1088400003490860704700007C20002000200040A1
:1088500000250040F8B504460F46154600260020C6
:1088600028702078002809D02A463946204601F091
:10887000A2FF0646002E01D03046F8BDA0780028A1
:1088800008D02946384600F051FD0646002E01D09A
:108890003046F2E7E07800280ED002212A78501CFA
:1088A0002870B95401212A78501C2870B954E178F5
:1088B0002A78501C2870B954606800280BD000201A
:1088C000616808562A46394602F08CFE0646002E9C
:1088D00001D03046D1E7208900280CDD3B46062236
:1088E000022120460830009503F00FF80646002EBE
:1088F00001D03046C1E7208A00280CDD3B46072224
:10890000032120461030009502F0FFFF0646002E9E
:1089100001D03046B1E7208B00280CDD3B46152204
:10892000142120461830009502F0EFFF0646002E75
:1089300001D03046A1E7206A002809D02A463946EE
:10894000206A01F071FA0646002E01D0304694E705
:10895000606A002809D02A463946606A01F0F6FEAE
:108960000646002E01D0304687E72C20005D002807
:1089700009DD2A463946204602F048FB0646002E0D
:1089800001D0304679E7304677E70146C8780422BF
:108990001040002801D1072070470020FCE70000AC
:1089A00070B59CB0052600200190029003905921DB
:1089B000684681801B4903910846FFF7F1FB81B2AD
:1089C0006846018118480068009018480178684698
:1089D0008170302110A8FFF7D8FB022110A8017088
:1089E000417000218170C67001A81990302104A83F
:1089F000FFF7CBFB0121684601846946099104A970
:108A000010A800F0B8FC044600BF2546002D06D093
:108A100000BF00221146284600F0AAF800BF00BFA0
:108A20001CB070BD0920002010BA0100EC2000200D
:108A300030B587B0182101A8FFF7A7FB00216846D1
:108A40000171002002906846017340218182B421A7
:108A5000C18201A873DF044600BF2546002D06D061
:108A600000BF00221146284600F082F800BF00BF78
:108A7000022000F083FE044600BF2546002D06D0EC
:108A800000BF00221146284600F072F800BF00BF68
:108A900007B030BD014600BF064A506801225206A9
:108AA0008243044B9A60012252060240DA6000BF02
:108AB000704700000005005010B505480068002808
:108AC00001D1082010BD0348007800F01FF9F9E734
:108AD000802000208C200020FEB506460C4617465C
:108AE000052F01D20720FEBD1A4806601A480470FF
:108AF0001A480760002515E0E10088190278009205
:108B000081780191019989000522120707231B0230
:108B1000D318009A9200995000BF02780121914029
:108B20000D4300BF2046611ECCB20028E4D10C4B9F
:108B30002A4629460B4800F067F90290029800285F
:108B400001D00298CFE7084A0021084800F0A8F9B0
:108B5000C9E7000080200020842000208820002019
:108B6000F1A101008C200020E59F01009020002051
:108B700000BF00BF00BF00BF00BFBFF34F8F00BFEB
:108B800000BF00BF06480749C86000BF00BF00BF64
:108B9000BFF34F8F00BF00BF00BF00BF00BFFDE7A6
:108BA0000400FA0500ED00E070B504460D462046CD
:108BB00001F0D5FA00280AD0A068A18808402168F1
:108BC000085C2870A068401CA060002070BD0520D3
:108BD000FCE70346002901D10E207047002A03D08C
:108BE000501E1040002801D00920F6E71960501EE1
:108BF000988000209860D86000BFEEE770B504460A
:108C00000D46204601F0ABFAA188884209D8E068F9
:108C1000A188084021680D54E068401CE0600020F5
:108C200070BD0420FCE7000070B505460C46002C22
:108C300001D1072070BD20468107890F002901D18D
:108C4000012100E00021002901D10720F2E71848A6
:108C5000046018480570002017490870174908601B
:108C60001448007814225043014611480068FFF769
:108C70008CFA0020C043124988600620002805DBDA
:108C8000C206D20E012191400E4A116000BF01219F
:108C90000620FFF78BFC0620002805DBC206D20E5B
:108CA00001219140084A116000BF0020C2E7000086
:108CB000A4200020A0200020A12000209C20002033
:108CC0000063004080E200E000E100E010B50246F1
:108CD0000B480068002801D1082010BD0948007821
:108CE000824201DB0720F8E714205043044C24683B
:108CF0000319054800691C68204008600020ECE763
:108D0000A4200020A120002000050050F0B502465C
:108D100037480068002801D10820F0BD35480078A8
:108D2000824201DB0720F8E70020334BD863334849
:108D3000046933480068002802D15806314B586056
:108D4000012090402E4B1B6818432D4B18600023C8
:108D500014205043264D2D684019C360002142E085
:108D600001238B40184614235343214D2D68EB58A3
:108D70000340002B36D025460540002D02D00323AA
:108D80001B040EE001235B0414255543184E36687E
:108D9000AD19ED68054314265643154F3F68F61983
:108DA000F56005252D0707263602AD198E00AD5951
:108DB00003263604B5430526360707273F02F61972
:108DC0008F00F55105252D0707263602AD198E00B7
:108DD000AD591D430526360707273F02F6198F00B8
:108DE000F55100BF491C2029BAD3002095E70000A7
:108DF000A4200020A1200020406100400005005078
:108E00009C20002000630040F8B504460D4616463D
:108E10001F4620480068002801D10820F8BD002F17
:108E200001D10720FAE71C4800781C4909788842DC
:108E300001DB0420F2E72846304317490978142261
:108E40005143144A12685050134800781421484383
:108E500010490968401845600F48007814214843BC
:108E60000C490968401886600B4800781421484373
:108E700008490968401807610748007820700648CB
:108E80000078401C04490870207801F017FF00208A
:108E9000C4E70000A4200020A1200020A020002082
:108EA00070B503460C4619480068002801D1082017
:108EB00070BD002A01D10720FAE7002B01D107205D
:108EC000F6E700211CE024204843104D2D68285C63
:108ED000002814D10125242048430C4E366835540F
:108EE00024204843094D2D684019447024204843EC
:108EF000064D2D684019826119600020D8E7491C91
:108F0000034800788142DEDB0420D1E7AC2000205A
:108F1000A8200020FFB581B00E4617461C4620460B
:108F20008107890F002901D1012100E000210029DA
:108F300002D1072005B0F0BD002C01D10720F9E7D0
:108F400001F030FF26490A98086026480670264836
:108F5000046000250CE0002124206843224A1268A6
:108F6000115424206843204A1268801801756D1C32
:108F7000B542F0DB24207043041903201B4908701C
:108F80001B480460183400250CE0E900184A1268F8
:108F9000881800210170417087704460182179435E
:108FA0000C196D1C032DF0DB0020C0431149086033
:108FB000002011490870114908701420FFF796FA33
:108FC00003211420FFF72EFB1420FFF79BFA0198D2
:108FD00001F0BEFE01F0B6FE094908600020A9E7D5
:108FE000CC200020A8200020AC200020B0200020B1
:108FF000B4200020B8200020C8200020C920002074
:10900000BC200020FEB504460D46164616480068F2
:10901000002801D10820FEBD14480078844201D206
:10902000052D01D20720F6E7242060430E49096888
:10903000085C012801D00820EDE7242060430A499C
:10904000096840184078012801D1284600E0002036
:10905000074602F031FC3B462A4621460096019025
:1090600002F0B4F9D7E70000AC200020A8200020CF
:1090700070B504460D480068002801D1082070BD75
:109080000B480078844201D30720F8E7242060438E
:1090900006490968085C012801D00820EFE702F0C2
:1090A0000BFC0546214602F0BBF9E8E7AC200020A6
:1090B000A820002010B5044621460248FFF774FDA1
:1090C00010BD000014260020FFB585B004460F46F1
:1090D0000E9D0020039002908049087080490798F7
:1090E0000860002F02D1072009B0F0BDB88882B215
:1090F0007C483968FFF76DFD0646002E01D03046EA
:10910000F2E7B88982B27848B968FFF762FD06468F
:10911000002E01D03046E7E7607801F097FB207819
:1091200000210191019989000522120707231B02E2
:10913000D2188300D15000BF60786C49C860207895
:109140004861A06848626079002804D00E20674911
:109150004031C86203E0002064494031C862207990
:10916000022874D1A07801F071FBA1780120884019
:109170005F4948600020C0435C490861A07888606E
:109180005A484030C06A0121084358494031C862FA
:10919000E1780120884057490860E07800220321E7
:1091A0000092019101990904009A9200114305224D
:1091B000120707231B02D2188300D15000BFE178A9
:1091C000012088400390E17801208840029028889F
:1091D000002810D1484B4948029A0399FFF714FE22
:1091E0000646002E01D030467EE744480078000253
:1091F000FF30288008E02888FF2801DA072073E77D
:10920000288800123D49087004A93C480078FFF7FF
:109210005DFD0646002E01D0304665E737480078F0
:10922000FFF774FD0646002E01D030465CE7E1787A
:109230000120884004990840002804D1012001F051
:10924000BFFC29E003E0002001F0BAFC24E0207913
:10925000012811D12888002807D1294800782880C2
:1092600027480078401C26490870204602F0ACFAD6
:1092700001201A4908700FE02888002807D12048EB
:10928000007828801E480078401C1D49087002F0B4
:109290007BFA0120114908700020C04319498860F9
:1092A000A120800048600220002805DBC206D20E03
:1092B00001219140144A116000BF02200899FFF774
:1092C00039F90220002805DBC206D20E01219140A7
:1092D0000E4A116000BF002006E700007C2000203D
:1092E000782000201426002024260020002500409D
:1092F000000500507420002031A2010071200020E0
:10930000702000200023004080E200E000E100E047
:1093100070B5044621460448FFF770FC054602205C
:1093200001F04EFC284670BD24260020F8B5054605
:109330000C462078001D1F2801DD0C20F8BD684672
:1093400079DF0646002E01D03046F7E70321227868
:10935000501C2070A95419212278501C2070A95447
:10936000207841196846008802F04EFA21784018AA
:1093700020700020E2E7F3B593B00D460021129172
:1093800011911398002814D01398FFF7FEFA0446A1
:10939000002C02D0204615B0F0BD12AA09A91398DE
:1093A000FFF758FA0446002C01D02046F3E709AE37
:1093B00000E00026002D13D0284601F0D3FE04461D
:1093C000002C01D02046E6E711AA01A92846FFF7A4
:1093D00041FA0446002C01D02046DCE701AF00E052
:1093E000002710A803793A46017A304672DFD2E7A7
:1093F00070B505461C2229461448FEF7ADFE002034
:1094000013490870286800280BD0082211482968E1
:10941000FEF7A2FE0F487ADF0446002C08D0204653
:1094200070BD0C487BDF0446002C01D02046F7E7D6
:109430000020C04308490880002008490870084AF5
:1094400000210848FFF72CFDEAE70000F82500207E
:109450006C200020542000205E2000205C20002092
:109460001DB801006820002010B50446208810288F
:1094700006D0112808D012280ED0502810D107E0AD
:10948000204601F0FDFA0CE0204601F059FB08E00F
:10949000204601F0BBFB04E0204601F0E5FA00E0C5
:1094A00000BF00BF10BD000010B504462046FFF706
:1094B000DBFF2146034800F049F8204601F0E6F9B9
:1094C00010BD0000EC20002070B586B004460E46AA
:1094D0001D4B0FCB01AD0FC5002C01D0002E02D1CA
:1094E0000E2006B070BD0020C043A0823068A0618D
:1094F0000020A075214601A863DF0546002D01D09C
:109500002846EEE721786846817501218182A21CF8
:1095100005A90120A0DF0546002D01D02846E0E77F
:109520003146204601F07EFC0546002D01D028463C
:10953000D7E73146204601F0E6FF0546002D01D071
:109540002846CEE70020CCE738BA010070B50546C2
:109550000C46002D01D0002C00D170BD20881028B1
:1095600004D0112807D050280FD109E02146284601
:1095700001F0A4FA0AE02146284601F003FB05E0C9
:109580002146284601F070FB00E000BF00BF00BF8D
:10959000E3E7000037B584B004460D46002C02D145
:1095A0000E2007B030BDA08A0F49884202D0A07DAE
:1095B000002801D10820F4E76846008B142801DD5B
:1095C0000720EEE700200090019002900390A1890F
:1095D00068460180039506A80290012168468170C3
:1095E000A08A6946A6DFDCE7FFFF00007CB500BF6C
:1095F000002348221B490F2001F080FD054600BFD3
:109600002E46002E06D000BF002211463046FFF73E
:10961000AFFA00BF00BF00BF002000900190694674
:109620000870684660DF044600BF2546002D06D05E
:1096300000BF002211462846FFF79AFA00BF00BF7C
:10964000094801F04FFD044600BF2546002D06D015
:1096500000BF002211462846FFF78AFA00BF00BF6C
:109660007CBD000020210020A9940100F8B505462A
:109670000E4600270024012E16D10C480068002851
:1096800012D000E0641C022C04D2A0000849085843
:10969000A842F7D1022C01D20648075D002F03D063
:1096A0003846024909688847F8BD00004820002074
:1096B00020BA01004C20002030B5034600224AE0C9
:1096C0009000274C2158012090401840002822D0BB
:1096D000052000070724240200198C0000590324E8
:1096E0002404A0430524240707252D0264198D00B6
:1096F0006051052000070724240200198C0000593E
:109700000324240420430524240707252D0264197B
:109710008D0060511EE00520000707242402001977
:109720008C00005903242404A043052424070725A2
:109730002D0264198D0060510520000707242402C2
:1097400000198C0000590524240707252D026419EF
:109750008D006051521C022AB2D3002030BD00009F
:1097600020BA010002460020022A02D2024B99547C
:1097700000E00720704700004C20002070B5044630
:10978000002506480078C007C00F002803D02046F7
:1097900000F064F80546284670BD00003C2000201B
:1097A000F7B505460F4600242248076022480560A9
:1097B0002249029808600220284000281BD0002679
:1097C00007E030460B30C1B23046FFF7CBFF04460E
:1097D000761C022E01D2002CF3D0002C05D17A0881
:1097E00002211748FFF778F90446002C02D1FFF751
:1097F00063F9044600BFE807C00F002807D000BF88
:109800000020104988601048C86000BF8861002CA3
:1098100005D10E4A00210E48FFF742FB0446002CFA
:1098200005D10C4A01210C48FFF73AFB04462046BB
:10983000FEBD0000382000203C20002048200020F1
:1098400028BA010000050050020000036DA40100C9
:1098500040200020958A010044200020F8B50446ED
:10986000002500262300FEF733FE180D1718569426
:10987000D3FDFCFBFAF9F8F7F6F5F4F3F2F1F0EFAB
:10988000EEEDECEB00BF0020FE498860FE48C860AA
:1098900000BFFE48047033E200BF00BF0020F9495A
:1098A000886001200006C86000BF084640680221A9
:1098B000084000280FD000BF0020F2498860022035
:1098C000C86000BF022C02D1E120C00001E07D2071
:1098D000400106460DE000BF0020EA49C8600220B2
:1098E000886000BF022C01D1C82001E0FF20913028
:1098F0000646E648047064213046FEF717FCE4494A
:1099000009684843074600223946E2480068FFF7E5
:1099100079FB0546F4E100BF0020DA4988600120A8
:109920000006C86000BF08464068022108400028C1
:109930000FD000BF0020D34988600220C86000BF5C
:10994000032C02D11920400101E07D204001064690
:109950000DE000BF0020CB49C8600220886000BF36
:10996000032C01D1C82001E0FF2091300646C748F2
:10997000047064213046FEF7D9FBC54909684843A5
:10998000074600223946C3480068FFF73BFB0546FF
:10999000B6E100BF0020BB49886001200006C86016
:1099A00000BF084640680221084000280FD000BFD1
:1099B0000020B44988600220C86000BF042C02D196
:1099C0007D20400101E07D20400106460EE000BF01
:1099D0000020AC49C8600220886000BF042C02D17E
:1099E000FF20913001E0FF2091300646A748047027
:1099F00064213046FEF79AFBA549096848430746AB
:109A000000223946A3480068FFF7FCFA054677E1D3
:109A100000BF00209B49886001200006C86000BF8D
:109A20000846406802210840002822D000BF0020DC
:109A3000944988600220C86000BF052C15D112E04F
:109A40005DE152E150E13EE12CE10BE100E1D0E0CB
:109A5000CEE0CCE0CAE0C8E0BFE0A6E08FE076E070
:109A60005FE04DE025E0C82001E07D204001064692
:109A70000DE000BF00208349C8600220886000BF5D
:109A8000052C01D1C82001E0FF20913006467F4817
:109A9000047064213046FEF749FB7D49096848435C
:109AA0000746002239467B480068FFF7ABFA0546B7
:109AB00026E100BF00207349886001200006C860CD
:109AC00000BF0846406802210840002806D000BFB9
:109AD00000206C4988600220C86006E000BF0020BA
:109AE0006849C8600220886000BF68480470684800
:109AF0000022016867480068FFF784FA0546FFE026
:109B000000BF00205F49886001200006C86000BFD8
:109B100000BF0020C8600220886000BF5B4804705E
:109B2000EEE000BF57494868012109068143554AC4
:109B30009160012109060140D16000BF5448002214
:109B4000016854480068FFF75DFA0546D8E000BF99
:109B50004C4948680121090681434A4A9160012124
:109B600009060140D16000BF4948006882008118A1
:109B7000002248480068FFF745FA0546C0E000BFEC
:109B8000404948680121090681433E4A916001210C
:109B900009060140D16000BF3D48002201683D48F0
:109BA0000068FFF72FFA0546AAE000BF354948686C
:109BB000012109068143334A9160012109060140D0
:109BC000D16000BF3248006882008118002231480D
:109BD0000068FFF717FA054692E000BF0020294908
:109BE000C8602D48886000BF8AE000BF00BF00BF8A
:109BF00000BF2A480068FFF73BFA05461120061B04
:109C0000002E1CD0002D1AD1012E10D9C82171436D
:109C100008466421FEF78AFA1D4909684843074649
:109C2000002239461D480068FFF7ECF9054600BFE1
:109C300000201449C86001204006886007E000BF8A
:109C400000201049886001204006C86000BF57E02E
:109C500000BF00200B4988600F48C86000BF0B4858
:109C600004704DE000BF0020064988600320000614
:109C7000C86000BF00BF0020C8600220886000BF2D
:109C800002480DE0000500500200000134200020D1
:109C90003820002040200020020000034420002043
:109CA00004702DE000BF0020174988601748C86085
:109CB00000BF00BF0020C86001200006886000BF10
:109CC000134804701CE000BF00200F498860012089
:109CD0004006C86000BF00BF0020C8600D48886013
:109CE00000BF0B4804700BE000BF00BF0020064916
:109CF000C8600948886000BF0548047000E000BFE4
:109D000000BF2846F8BD0000000500500200000218
:109D100034200020020000010200000370B5044658
:109D20000D46012D03D120786268904705E0002D93
:109D300003D1207800216268904770BDFEB51E48AF
:109D40000068401C002834D01B4800682421484388
:109D50001A4909684018456800F0F4FF0190184856
:109D600004682146019801F005FAC61C15480078E0
:109D7000002801D100F0F8FFAE4201D2284600E0F1
:109D8000304604192402240A20460F49086000BF07
:109D900000F0D8FF00900199009801F0EBF9C71C82
:109DA0002046019901F0E6F9874201D901F0A6FBAE
:109DB00001E000F0F7FFFEBDB8200020AC2000203D
:109DC000BC200020D020002040150140014608881A
:109DD000062808DB08881922D201904205DD088890
:109DE000104A904201D0072070474888062808DBB7
:109DF00048881922D201904205DD4888094A9042DC
:109E000001D00720F0E70888064A904208D0488829
:109E1000904205D008884A88904201DD0720E3E798
:109E20000020E1E7FFFF0000F8B506460D461446A6
:109E30002078801D1F2801D90C20F8BD3046FFF77F
:109E4000C5FF0746002F01D03846F6E705212278E6
:109E5000501C2070A95412212278501C2070A95443
:109E600022785119308801F0CFFC217840182070F9
:109E700022785119708801F0C7FC217840182070B1
:109E80000020DAE710B5044600BF00221146204644
:109E9000FEF76EFE00BF10BD30B587B01C216846CE
:109EA000FEF773F9002000900520C00301900F20F9
:109EB000000402900321684601730021C1810174EE
:109EC0000A4805900A4806906846FFF791FA04464A
:109ED00000BF2546002D06D000BF002211462846AF
:109EE000FEF746FE00BF00BF07B030BD35AA010037
:109EF000859E010038B51F4800F02AFA002829D1B4
:109F00001D48007800280AD01C484069002820D04D
:109F100000200090194841696846884719E01848B0
:109F20000078002802D11548456801E0134885688B
:109F30000022294613480068FFF764F80446002C05
:109F400007D00E488069002803D00C48816920465C
:109F500088470AE009484069002806D0012000909F
:109F6000064841696846884700BF002002490870DA
:109F700038BD0000602000206C200020F825002063
:109F80005C2000206820002010B514484068C105FE
:109F9000C90D002920D00A46103A50B200280CDB27
:109FA0000F4B032424021B198408A4001B598407A7
:109FB000E40EE3401B069B0F0CE0084B1C33040728
:109FC000240F083CA408A4001B598407E40EE340B6
:109FD0001B069B0FD8B210BD0420FCE700ED00E08B
:109FE00000E100E0F8B50746694622480078FEF730
:109FF0006DFE0646002E00D0F8BD002534E0E800D6
:10A000001D49096844181D480068227801219140C3
:10A01000084000280FD0606800280CD06078012824
:10A0200004D100212046FFF779FE1BE001212046E4
:10A03000FFF774FE16E01148406822780121914034
:10A04000084000280ED0606800280BD060780128F6
:10A0500004D101212046FFF761FE03E000212046E4
:10A06000FFF75CFE681CC5B2054800788542C6DB78
:10A0700000BFC1E78C200020802000209420002019
:10A0800084200020014614480078144A1278904237
:10A090001DD011480078401C0F4A107010460078FF
:10A0A000022801D1002010700B48007880000C4A73
:10A0B000105808600B4A086812688018094A106036
:10A0C000104600680002000A10600120704700205E
:10A0D000086000BFFAE70000C8200020C920002067
:10A0E000C0200020BC200020F0B50346002426E05C
:10A0F000164E366824277E43154F3F68F019466890
:10A100009E4203D94668F61A46601DE046689B1BCE
:10A11000466834190026466006750C4E35680B4FAC
:10A12000066A3E600669002E08D00E193602360A0D
:10A1300086600669C66016680662156000BF03483F
:10A140000068401C0028D3D100BFF0BDB82000201B
:10A15000AC20002001468A68C868801A7047014612
:10A160008A68C868801A70473EB500BF68460078A4
:10A1700001090901491C009168460078F0218843D3
:10A180001030009000BF1948FEF70AF885B22A4641
:10A19000164968467CDF044600BF2546002D06D0E0
:10A1A00000BF002211462846FEF7E2FC00BF00BFB8
:10A1B0000020019002900821684681801021C18012
:10A1C00000210181FF219131418101A87ADF0446FC
:10A1D00000BF2546002D06D000BF002211462846AC
:10A1E000FEF7C6FC00BF00BF3EBD000009200020F6
:10A1F00070B504460D460B480068FEF739FF064669
:10A20000002E00D070BD08484460056020462843F9
:10A2100002460648016803480068FEF7F3FE06465A
:10A2200000BFEFE79020002094200020882000202D
:10A23000F8B504460D4628462040144909680840F0
:10A2400000280FD0694612480078FEF73FFD064609
:10A25000002E00D0F8BD009804402846009988439D
:10A26000054600BF094800682840002803D00120A7
:10A2700000F0A6FC07E0054800682040002802D056
:10A28000002000F09DFC00BFE4E7000074200020E7
:10A2900071200020F8B529480078002800D1F8BDC9
:10A2A00027480068002801D1012000E00020054671
:10A2B00024480068002801D1012000E00020064663
:10A2C00000BF002D14D1684651DF0446052C01D192
:10A2D00001250CE0002C06D000BF002211462046CC
:10A2E000FEF746FC03E0164900980968884700BF5E
:10A2F000002E1AD11448008800906946134800685F
:10A3000061DF0446052C01D101260DE0002C06D0AA
:10A3100000BF002211462046FEF72AFC04E00B484D
:10A32000006808490968884700BF002D02D0002E48
:10A3300000D000E0C5E700BF00BFB0E7D820002094
:10A34000E8200020E4200020E0200020DC20002085
:10A3500001464888064A1288904206DB4888044A2B
:10A360005288904201DC012070470020FCE7000089
:10A37000542000200C48008CC0B2012812D10A4899
:10A38000808C0007000F00280CD10748806AF0215C
:10A390000840402806D10448C06A0840002801D17E
:10A3A000012070470020FCE7C00F00F01948008C26
:10A3B000C0B201282CD11748808C0007000F00285C
:10A3C00026D11448806AF0210840002806D111489F
:10A3D000C06A0840002801D1012070470D48806AFA
:10A3E000F0210840102806D10A48C06A0840002819
:10A3F00001D10120F1E70748806AF02108403028A8
:10A4000006D10448C06A0840002801D10120E4E7D1
:10A410000020E2E7C00F00F01348008CC0B2012812
:10A420001FD11148808C0007000F002819D10E4859
:10A43000806AF0210840A02806D10B48C06A084075
:10A44000002801D1012070470748806AF0210840A8
:10A45000D02806D10448C06A0840002801D1012054
:10A46000F1E70020EFE70000C00F00F010B5044650
:10A4700005480078C007C00F002803D003480078C3
:10A48000FFF7ECF910BD00003C2000203420002034
:10A49000FEB52B48006801902A480078009040E003
:10A4A0000098C000284909684418257835E018202C
:10A4B000684361680F18681CC5B2A078A84200D133
:10A4C00000253878022802D0032823D10EE0242169
:10A4D000786848431D4909684618307D002804D033
:10A4E000786800F00DFF0020307514E00CE014498E
:10A4F000096824225143154A126888180021017501
:10A500000F4A016A116000BF0D480068401C002816
:10A51000EDD100E000BF00BF00BF6078A842C6D107
:10A5200000BF0098411EC9B200910028B8D104486C
:10A5300001680198814201D00120FEBD0020FCE7A6
:10A54000B8200020B0200020B4200020AC20002043
:10A55000FEB50746434800680290434800780190E2
:10A5600071E00198C00041490968451863E0781C12
:10A57000002807D03E46242070433D49096844180E
:10A58000276A29E02978182359436A6850182978DE
:10A59000491C29702978AA78914201D1002129709B
:10A5A000466824217143324A12688C1801780129C7
:10A5B00002D1217D002900D03DE08168A160C16801
:10A5C000E160016921614169E1612A490978002955
:10A5D00001D00021A16000BF2749A0680968401A86
:10A5E0000002000A2549884208D22349A068096868
:10A5F00000F0C0FDE1684018606011E01E48A168ED
:10A60000006800F0B7FD0090E1680098814204D92D
:10A61000E1680098081A606001E00020606000BFF7
:10A620000020A060E06001202075801E206230467E
:10A6300000F0F8FD00BF781C002898D128786978D0
:10A64000884294D100BF0198411EC9B201910028EF
:10A6500087D1044801680298814201D00120FEBDE3
:10A660000020FCE7B8200020B0200020B42000200B
:10A67000AC200020D1200020BC200020FFFF7F0064
:10A6800008B500BF00202E4B052204210090FEF7E4
:10A6900041FC054600BF2E46002E06D000BF00221A
:10A6A00011463046FEF764FA00BF00BF00BF00BF8E
:10A6B00024490120FEF7B8FA054600BF2E46002EB9
:10A6C00006D000BF002211463046FEF751FA00BF07
:10A6D00000BF00BFFEF78AFF01F022F800221A49EE
:10A6E0000320FFF75DF8044600BF2546002D06D085
:10A6F00000BF002211462846FEF73AFA00BF00BF0D
:10A700000120FEF7D9FF044600BF2546002D06D0E4
:10A7100000BF002211462846FEF72AFA00BF00BFFC
:10A72000FFF722FD00F0B8FCFEF73AF9FFF7B4FBA3
:10A7300000F00AFCFEF77CF900BF00F0F3FAFCE73A
:10A740007C230020E4250020CD0C0000F8B5054650
:10A750000E4614462879801CC7B22078801CC01988
:10A760001F2801DD0C20F8BD781CC1B22278501CD6
:10A770002070B154FF212278501C2070B1542278EF
:10A780009119288801F040F8217840182070A88895
:10A7900000280EDDA868002801D10720E3E7AA8879
:10A7A00023789819A968FDF7D7FC207829794018F3
:10A7B00020700020D7E7F7B584B004460F4606980E
:10A7C0000678B01C1F2803DC6078801C1F2802DD7F
:10A7D0000C2007B0F0BD1F20801B801E85B20295A3
:10A7E000B11C781802A97DDF03900398002801D0DE
:10A7F0000398EEE72078022808D168460089A8422D
:10A8000004DC09200190684605890BE008200190CE
:10A810006078002804D06078A84201DC657801E007
:10A8200068460589681CC2B23046711CCEB23A54E3
:10A830003046721CD6B20199395406980178A81C8A
:10A840000818C1B2069801700020C2E70321052252
:10A85000120707231B02D2188300D1507047F8B5A6
:10A8600007460D461646002406E000BF285DFEF7A9
:10A870004FFD0028FAD1641CB442F6D300BF0A2071
:10A88000FEF746FD0028FAD1F8BD0000F8B50546F0
:10A890002888142865D006DC10280BD011281DD07C
:10A8A000132877D131E017285AD0192873D05228AD
:10A8B000F7D141E00720FEF761FF044600BF2746BD
:10A8C000002F06D000BF002211463846FEF750F98F
:10A8D00000BF00BFA88854490880A3E00020FEF70D
:10A8E0004DFF044600BF2746002F06D000BF0022C0
:10A8F00011463846FEF73CF900BF00BF0020C043B8
:10A9000049490880FEF794F88CE000204749086028
:10A910000B46474A0021444800887FDF044600BFB9
:10A920002746002F06D000BF002211463846FEF70A
:10A930001FF900BF00BF75E000231A4619463A48C8
:10A940000088A9DF044600BF2746002F06D000BFBD
:10A95000002211463846FEF70BF900BF00BF61E048
:10A9600060E032480068002816D0304806680023AE
:10A970001A4631462C48008882DF044600BF27462D
:10A98000002F06D000BF002211463846FEF7F0F82F
:10A9900000BF14E045E013E000231A4619462248A0
:10A9A000008882DF044600BF2746002F06D000BF84
:10A9B000002211463846FEF7DBF800BF00BF31E049
:10A9C000A87900282CD1FEF7D9FE044600BF2746FF
:10A9D000002F06D000BF002211463846FEF7C8F807
:10A9E00000BF00BF0120FEF767FE044600BF2746F8
:10A9F000002F06D000BF002211463846FEF7B8F8F7
:10AA000000BF00BF3CDF044600BF2746002F06D032
:10AA100000BF002211463846FEF7AAF800BF00BF6B
:10AA200000E000BF00BFF8BD062000200821002084
:10AA30000020002070B505462878002810D13B2161
:10AA40000848008876DF044600BF2646002E06D060
:10AA500000BF002211463046FEF78AF800BF00BF53
:10AA600070BD00000620002010B504460822A11D7C
:10AA70000248FDF771FBFFF73DFA10BD6020002092
:10AA800010B50446A08809490880082221461631DD
:10AA90000748FDF761FB0020064908700648C08999
:10AAA000002801D1FFF726FA10BD00005E2000202B
:10AAB000602000205C200020F82500208A88828207
:10AAC0007047000010B508480078012802D002281D
:10AAD00007D102E0FDF7ACFE04E003200249087054
:10AAE00000E000BF00BF10BD7C20002010B5104862
:10AAF0000078002802D0032816D111E004200D4967
:10AB0000086001200C4908600C48FFF723FB00286F
:10AB100002D0FDF74FFE02E001200549087004E075
:10AB200002200349087000E000BF00BF10BD000014
:10AB30007C2000200025004000200040242600202A
:10AB400070B505460020C0430A49088000200A4924
:10AB500008700A480068FEF78BFA0446002C07D0FC
:10AB600007488069002803D0054881692046884746
:10AB700070BD00005E2000205C20002068200020C6
:10AB8000F82500200022D2438282704710B5094880
:10AB90000078012807D0022804D0032806D1FDF749
:10ABA00047FE04E000BFFDF7F7FD00E000BF00BF77
:10ABB00010BD00007C20002010B5FDF739FE10BD4F
:10ABC00010B504462300FDF783FC0504070D0A10A9
:10ABD0001300FFF777FF0CE0FFF788FF09E0FFF7AE
:10ABE000D5FF06E000F008F803E0FFF7E5FF00E01E
:10ABF00000BF00BF10BD000010B503480078012859
:10AC000001D1FDF7D7FD10BD7C20002070B50546B1
:10AC1000AC1D20881249C989884220D1208B022886
:10AC20001DD100BF00BFA17EE27E12021143084683
:10AC3000C107C90F002902D0FFF75CF90FE00948EE
:10AC40000068FEF715FA0646002E07D00448806912
:10AC5000002803D0024881693046884700BF70BD94
:10AC6000F82500206820002070B504460E46B51D6A
:10AC70002988208A814213D1288B022810D100BF55
:10AC800000BFA97EEA7E120211430846C107C90F20
:10AC9000002902D00120A0750FE00020A0750CE073
:10ACA0002888A188884208D1A069002805D02A8B6D
:10ACB00029461A312046A369984770BD10B5014650
:10ACC000002029E014224A43154B1B689A5801239F
:10ACD00083401A40002A1ED00522120707231B02B8
:10ACE000D2188300D25803231B049A4305231B0761
:10ACF000072424021B1984001A5105221207072376
:10AD00001B02D2188300D25805231B0707242402F4
:10AD10001B1984001A51401C2028D3D310BD0000F9
:10AD2000A420002070B548DF044600BF2546002D52
:10AD300006D000BF002211462846FDF719FF00BFCC
:10AD400000BF70BD01484068704700000015014019
:10AD500010B504460348846003211120FDF762FC0E
:10AD600010BD00000015014010B5012000040A4983
:10AD700048600949403948601120FDF7B7FB1120B0
:10AD8000FDF7C0FB0120054908602F20FDF7A2F95F
:10AD900001200349087010BD40130140001001401C
:10ADA000D020002010B51120002815DBC206D20EDD
:10ADB00001219140164A116000BF00BF00BFBFF3E0
:10ADC0004F8F00BF00BF00BF00BF00BF00BFBFF379
:10ADD0006F8F00BF00BF00BF00BF012000040D49FE
:10ADE00088600C494039886001200B4948602F2059
:10ADF000FDF770F9012008498860002007490860C4
:10AE00002F20FDF767F900200549087010BD0000EC
:10AE100080E100E04013014000100140BC20002010
:10AE2000D020002030B58FB004460D46002007909A
:10AE300000BF6846007F01090901491C6846017787
:10AE4000007FF021884310306946087700BF00BFBB
:10AE50006846407F01090901491C68464177407FE7
:10AE6000F021884310306946487700BF6846807FEC
:10AE700006218843811C684681771C2108A8FDF7BC
:10AE800084F908A8007810218843411808A80170A7
:10AE9000002009900B900C9007A80D9000200E90B8
:10AEA000217868468171032181800020009000BFD5
:10AEB0006846007801090901491C6846017000785C
:10AEC000F021884310306946087000BF00BF684613
:10AED000407801090901491C684641704078F02119
:10AEE000884310306946487000BF68468078062164
:10AEF0008843811C68468170807808218843014618
:10AF000068468170807810218843014668468170C8
:10AF1000807841084900491C68468170142102A8C4
:10AF2000FDF733F901A802906846039001210182E0
:10AF30000021418214218182608823460C3302AAB9
:10AF400008A9A2DF0FB030BD0F48007840084000CC
:10AF5000401C0D49087008460078022188430A49C0
:10AF60000870084600781C2188430C300649087098
:10AF7000084600782021884303490870072048705C
:10AF8000102088707047000000200020F0B50246B5
:10AF90000C46002037E001238340194623460B402E
:10AFA000002B2FD0D5680D40002D05D101235B0467
:10AFB000D5680D43D56004E003231B04D5688D4399
:10AFC000D56005252D0707263602AD198600AD5937
:10AFD00003263604B5430526360707273F02F61930
:10AFE0008700F55105252D0707263602AD19860085
:10AFF000AD591D430526360707273F02F61987007E
:10B00000F55100BF401C2028C5D3F0BDFEB5074652
:10B010000E461446B86A002801D10720FEBD002064
:10B02000019032E0B96A0C22019850430D1828793A
:10B03000801CC0B200900098401CC1B22278501C05
:10B040002070B15416212278501C2070B1542278FF
:10B050009119288800F0D8FB217840182070A88822
:10B0600000280EDDA868002801D10720D6E7AA88AD
:10B0700023789819A968FDF76FF820782979401886
:10B0800020700198401CC0B201902C20C15D019835
:10B090008142C7DC0020C1E738B5002000900A4893
:10B0A000009069460948FEF70FFA044600BF25469E
:10B0B000002D06D000BF002211462846FDF758FD9E
:10B0C00000BF00BF38BD00005FA80100EC200020D9
:10B0D00070B506460C46154629462046C046C04671
:10B0E00070BD00000146002901D10E2070470248C2
:10B0F00001600020FAE70000E4200020FFB581B0E5
:10B100000C4616461F46002C02D1072005B0F0BDA4
:10B1100020468107890F002901D1012100E000218B
:10B12000002901D10720F1E7094804600948068099
:10B13000094807600949019810DF0546002D01D034
:10B140002846E3E701200649087016202EDFDDE7D8
:10B15000DC200020E0200020D4200020D1B001001D
:10B16000D82000200146C878002801D00720704769
:10B170000020FCE70246501A0002000A7047000057
:10B1800070B504460D480068002812D00B4AE169EA
:10B19000A06912689047054600BF2E46002E06D0D3
:10B1A00000BF002211463046FDF7E2FC00BF00BFA1
:10B1B00002E0A169E069884770BD0000CC20002052
:10B1C000FEB50020C043019010480468104807688D
:10B1D0006846FEF757FF0546FFF75AF90646002D69
:10B1E00005D001AA21460098FEF77EFF01260198AE
:10B1F000FFF7AEF9002800D00126002E02D0384615
:10B20000FEF79CFD002003490870FEBDBC20002015
:10B21000B8200020D120002010B51420FDF77EF9C1
:10B2200010BD0000F0B5024624205043324B1B688D
:10B23000C11832480068401C002802D12F48026023
:10B2400059E02E484B680068242460432A4C246847
:10B2500000194068834217D82848006824235843BF
:10B26000254B1B68C01840684B68C31A2348006808
:10B2700024246043204C2468001943601F48006860
:10B2800008621E48026036E04B681C4D2C68286836
:10B290000DE024254543184E3668AD196D685B1BDB
:10B2A000044624254543144E3668AD19286A451CCA
:10B2B000002D07D0242545430F4E3668AD196D6823
:10B2C0009D42E6D3451C002D0CD0242545430A4E53
:10B2D0003668AD196D68EE1A24254543064F3F6860
:10B2E000ED196E604B60086224256543024E366896
:10B2F000AD192A6200BFF0BDAC200020B8200020AC
:10B3000070B502462C4C2168084609E0904200D1F5
:10B3100009E0014624244443284D2D686419206A1D
:10B32000441C002CF2D100BF441C002C00D170BD85
:10B33000814217D1204C246824256C431F4D2D6871
:10B340006419246A1C4D2C602C462468641C002C53
:10B3500008D101241A4DAC6000241A4D2C60012440
:10B36000194D2C7024244443144D2D6864196368CE
:10B3700024244443114D2D686419256A24244C4328
:10B380000E4E3668A419256224244C430B4D2D68BB
:10B390006419206A441C002C0CD024244443074D1B
:10B3A0002D6864196468E51824244443034E366804
:10B3B000A419656000BFBAE7B8200020AC200020C7
:10B3C00000100140BC200020D1200020FFB581B03A
:10B3D00005460E461746E900104A12688818694665
:10B3E00000F07BFA0446002C02D1042005B0F0BD29
:10B3F000012020706660FFF7A5FCA060E76004985C
:10B4000020610A986061E900044A1268881800996E
:10B4100000F079FAFFF700FF0020E7E7B4200020F2
:10B42000F8B504460E46E1000C4A126888186946D1
:10B4300000F053FA0546002D01D10420F8BD02208A
:10B4400028706E60E100054A12688818009900F0C3
:10B450005AFAFFF7E1FE0020F0E70000B4200020D8
:10B46000F8B520480068401C00283AD00027FFF7B4
:10B4700069FC04461C4801682046FFF77BFE06462F
:10B480001848056811E024206843184909684418E1
:10B490006068B04200D90BE06068361A6068C7196E
:10B4A000256A2046FFF76CFE00BF681C0028EAD121
:10B4B00000BF0F4800780F490978884209D10D482C
:10B4C0000078401CC0B20B490870022801D100204E
:10B4D000087008480078800007490F50FFF79CFE6D
:10B4E00000BFF8BDB8200020BC200020AC20002008
:10B4F000C8200020C9200020C020002010B5112045
:10B50000FDF70CF810BD30B58FB004460D461C2178
:10B5100008A8FCF73AFE08A80078082188434118DB
:10B5200008A80170007804218843011D08A8017053
:10B53000002009900B900C900D900E902178684699
:10B540008172022101810020019000BF68460079CC
:10B5500001090901491C684601710079F0218843FD
:10B5600010306946087100BF00BF68464079010984
:10B570000901491C684641714079F0218843103027
:10B580006946487100BF6846807906218843811C5E
:10B590006846817180790821884301466846817137
:10B5A000807910218843014668468171807941087D
:10B5B0004900491C68468171142103A8FCF7E5FD88
:10B5C00002A8039001A8049001216846818200210D
:10B5D000C182142101836088231D03AA08A9A2DF68
:10B5E0000FB030BD30B503461078C01C1F2801DDF8
:10B5F0000C2030BD02241578681C10704C550A24AC
:10B600001578681C10704C551578681C10704B55D7
:10B610000020EEE770B505462878002804D0012800
:10B6200064D002286AD159E03649374A127888181E
:10B63000FDF740FD34480078401C33490870084647
:10B640000078401E2F49085C0A2803D02E48007855
:10B65000142842DB082C0BD000BF2646002E06D053
:10B6600000BF002211463046FDF782FA00BF00BF3E
:10B67000062226A12348FCF7A3FD002823D100269B
:10B6800006222049C91D2348FCF79AFD002806D050
:10B69000012606221B49C91D1E48FCF75DFD1948FD
:10B6A000807B1D490978884204D001261548807B9B
:10B6B00019490870002E02D00020FCF7A3FD0020DD
:10B6C000114908701BE0104802780E491348FDF735
:10B6D00061FF044600200C49087010E000BF002202
:10B6E00011466868FDF744FA00BF08E000BF002279
:10B6F00011466868FDF73CFA00BF00E000BF00BFDC
:10B7000070BD00006821002030200020424C4541DF
:10B7100044560000282000202F200020EC2000208C
:10B7200030B589B0144A07CA06AB07C300BF002072
:10B73000059012480190FF200130029010480390BC
:10B74000FF200130049005A803230E4A01A90090B0
:10B7500006A8FDF7B9FC044600BF00BF2546002D32
:10B7600006D000BF002211462846FDF701FA00BFAF
:10B7700000BF09B030BD000014BA01007C210020D8
:10B780007C22002015B6010004200C49086000202E
:10B790000B498860C86109484030C06A40084000D1
:10B7A00006494031C8620020C043044988600861EE
:10B7B00001200449886008607047000000250040AF
:10B7C000002100400020004004210C4A11600021AB
:10B7D0000B4A9160D16109494031C96A0122114384
:10B7E000064A4032D162C178044A11618178916081
:10B7F0000121044A9160116070470000002500405B
:10B80000002100400020004002460A70FF20000294
:10B8100010400012487002207047000038B50546FD
:10B8200020480088204988423BD020480078401CAE
:10B830001E4908701E48007B097888420FDB1D49AD
:10B840001848008875DF0446002C07D01848806926
:10B85000002803D0164881692046884721E000204F
:10B86000124908701248007C00280FD03B210D4877
:10B87000008876DF0446002C07D00D488069002838
:10B8800003D00B4881692046884700BF08484069BB
:10B89000002806D000200090054841696846884786
:10B8A00000BF38BD5E200020FFFF00005C200020AC
:10B8B000F82500205420002010B5FEF765FB012874
:10B8C00002D0032804D101E0002403E0012401E0B8
:10B8D000022400BF00BF204610BD70B502460B46D3
:10B8E0005078411C9078884200D10021107888421D
:10B8F00001D1002070BD196050781826704355683A
:10B900002C182046F6E741707047FFB581B0074616
:10B9100015460A9E009602223846049B029900F0C2
:10B9200014F80446002C02D0204605B0F0BD009665
:10B93000102229463846049B00F007F80446002CE4
:10B9400001D02046F1E70020EFE7FFB587B00646BB
:10B950001D46109C0020069020780590002747E0A7
:10B96000B900706841180A88684602814988418197
:10B97000002203A902A865DF04900498002802D0E1
:10B9800004980BB0F0BD6846017B099881422ED126
:10B990000698002801D0002000E0022001902078C5
:10B9A0006946097B4118019808181F2801DD0C2001
:10B9B000E7E70698002809D12078401C20702278FB
:10B9C000511C08982170A854012006902078421933
:10B9D00003A902A865DF04900498002801D0049808
:10B9E000CFE720786946097B4018207000BF7F1C94
:10B9F0003088B842B4DC0698002806D02178059833
:10BA0000401C081AC1B2059829540020B9E700006B
:10BA10000111000008090504000000000050270083
:10BA2000000000000B000000000003006D96010004
:10BA30000B0003006D9601009ECADC240EE5A9E010
:10BA400093F3A3B50000406E68BA01000020002007
:10BA5000EC0000009C86010054BB0100EC2000209B
:10BA60004C0D0000AC860100000000000000FFFF4C
:10BA700000434147450000000000000000000000B6
:10BA800000000000000000000000000000000000B6
:10BA9000000000000000004E000000000000000058
:10BAA0000000000000000000000000000000000096
:10BAB00000000000000000000024F400000000006E
:10BAC0000000000000000000000000000000000076
:10BAD0000000000000000000010000000000000065
:10BAE0000000000000000000000000000000000056
:10BAF0000000000000000000000000000000000046
:10BB00000000000000000000000000000000000035
:10BB10000000000000000000000000000000000025
:10BB20000000000000000000000000000000000015
:10BB30000000000000000000000000000000000005
:10BB400000000000000000000000000000000000F5
:04BB500000000000F1
:04000005000180C1B5
:00000001FF
